:020000040000FA
:060000000000452800008D
:080008000728000000000F2092
:100010007E01BF01D5014E018C0140010900400164
:100020000E1D2A288E1C2D280E1C30288C1E3328CD
:100030000C1E36288C1D39280C1D3C288C1C3F2892
:100040000C1C42288E1D2728FF30990044282008C8
:10005000990044282108990044282208990044283E
:100060002308990044282408990044282508990069
:10007000442826089900442827089900442828087D
:100080009900442829089900080040018B018B1B26
:100090004628400100309600FF3091007E01B801F3
:1000A000FF30B900BA01BB01BC014001003097002C
:1000B000EF3092007E01C301FF30C400C601C701CA
:1000C000400100309800FF3093007E01CE01FF30E8
:1000D000CF00D101D2014001FF30990000309400DF
:1000E0007E01D9010030DA00DC01DD014001003081
:1000F0009A00FF3095007E01E401FF30E500E70142
:10010000E8014F0178309600FB309700FF309800EF
:10011000FF309900BF309A00FF309B004E018C01E8
:100120008D018E018F019001910192019301940143
:10013000103096009701980199019A019B019C014A
:100140009D019E017E013F30BD00BE007E010F304B
:10015000D300D40051019730950096014501073036
:10016000900060308E0088308F0000309100163093
:100170008D004101003093007D011730CB007E01DE
:100180001030A6007D0155308F00AA308F000F146B
:10019000420124309E0090309D0008309F00403086
:1001A0009B0003309C0042011908190819084130CE
:1001B0009A00400185015F30FF007F081F3E8400E8
:1001C0008001FF0BDD286C22400180308B00F32181
:1001D00040012D128D182D162D1A0F29AD1D0F2936
:1001E000AA08031DF6280D180B290E292A08083C19
:1001F000031C02290D1CAB130D18AB1703190E2994
:10020000AB0C0E292A08093C031C07290E290D1CDA
:100210000B292D150C29AB01AA010F29AA0AAD1132
:100220002D1AAD152D191A212F210038031D352146
:100230000F20E82885013B303A0784002B08800016
:10024000BA0A3A080F39BA002D11272108004E01C9
:10025000900145018E138C018E17400108004E015C
:100260000130901C0030400108004001BA08031D15
:100270003D294E019001400108004001AC0164217C
:10028000BB01BC01BD01BE01BF01C001C101C20172
:10029000C301C401BA014E019001400108003C08AD
:1002A000BB003D08BC003E08BD003F08BE00400842
:1002B000BF004108C0004208C1004308C200440812
:1002C000C300C401BA0308003B08F03C031D6A29BF
:1002D0002C14EE293B08E03C031D7029AC14EE29D8
:1002E0003B087E3C031901003B08583C031D822952
:1002F0002C1CEE292E1D7F292E11FC21EE292E15F6
:10030000F621EE293B08123C031D8C292C1C8A295E
:100310002E10EE292E14EE293B08593C031D962978
:100320002C1C9429AE10EE29AE14EE293B08113C8A
:10033000031DA0292C1C9E292D10EE292D14EE2919
:100340003B08AA3C031DA829FC213F220222EE29DA
:100350003B08E13C031DB4294F214F214F214F2180
:100360004F214F214F21EE293B08143C031DBD298D
:100370002C1CBC29AD12BD29AD16BB1BEE293B358B
:10038000860092308700AC1CC629CD2990308700AA
:100390002E080319CD29913087001600AF000108FF
:1003A0000F39203E840085012F080319AC10031972
:1003B000EE29FF3AB1002C1CE12900082F0480002F
:1003C000EE29000831058000AC10AD1AEB292D187C
:1003D000EB29811FED29A813EE29A8174F213A0810
:1003E000031D64290800FF3005220800ED300522B6
:1003F0003F22063005220800ED3005223F22023060
:1004000005220800F830052208004E019001400145
:10041000B700971092103F221710121092142A2240
:100420000830B600B801371C182A1714B80A192A60
:10043000171031222A22B70CB60B132A381C222A95
:100440001710232A171431222A22121438222A22A2
:100450003122080027212F21031D08008D182B2A87
:10046000080027212F21031D08008D1C322A0800B7
:1004700027212F21031D08000D18392A0800C63036
:10048000B4006400B40B412A000000000000080022
:1004900081004D22810B492A08009E30B4001230A1
:1004A000B5003508800064000000800B532AB40BAF
:1004B000512A11308000800B5B2A000000000800E8
:1004C000632266220800C8304822080064304822AF
:1004D0000800023048220800FF30A000A100A2005E
:1004E000A300A400A500A600A700A800A90008007A
:1004F000CD004D0E80228B224D0880228B220800D9
:100500000F39303ECC00393C031C882A4C088A2A1B
:100510004C08073E080042019A0042019E1C8D2AA9
:04052000400108008E
:102000000034003400340034003400340034003430
:102010000034003400340034003400340034003420
:102020000034003400340034003400340034003410
:102030000034003480340934043400340034003473
:102040000034003400340034803408340034003468
:10205000803488348034023402340634003400344E
:1020600000340034003400348034063480340534C5
:1020700080340434803403340234073400340034B0
:10208000003400344034063480340734403404349F
:102090004034023402340434013406340034003451
:1020A00000340034203409344034073440340534DB
:1020B0002034023440340334023405340034003414
:1020C00000340034203407342034063420340534FE
:1020D0002034043420340334013404340034003414
:1020E0000034003400340034103406341034043426
:1020F0001034023402340234023403340034003425
:1021000000340034103407341034053410340334F0
:102110000834023402340834013402340034003408
:1021200000340034023409340134033408340434F4
:1021300008340634083403340134083400340034DD
:1021400000340034003400342034013400340034CE
:10215000403409340134093400340034003400348C
:102160000034003404340834043406342034083491
:1021700000340034103401340034003400340034AE
:1021800000340034003400340034003400340034AF
:10219000003400340034003401348034003400341E
:1021A0000034003402340634003400340234043481
:1021B000023402340034003400340034003400347B
:1021C000023408340234093402340734023405344A
:1021D0000134043402340334083409340034003444
:1021E0000034003401340734013406340134083437
:1021F0000134053401340234003400340034003436
:10220000003400340034003400340034003400342E
:10221000003400340034003400340034003400341E
:10222000003400340034003400340034003400340E
:102230000034003480348934043480340034003471
:1022400000340034003400340034003400340034EE
:10225000003400348034823480340034003400345C
:1022600000340034003400348034863480348534C3
:10227000803484348034833440340834003400346F
:10228000003400344034863480348734403484341D
:10229000403482344034013440340034003400345B
:1022A0000034003420348934403487344034853459
:1022B00020348234403483342034003400340034F9
:1022C000003400342034873420348634203485347C
:1022D0002034843420348334043402340034003411
:1022E0000034003400340034103486341034843424
:1022F0001034823410340034013405340034003496
:1023000000340034103409341034853410348334EC
:102310000834823408340134083400340034003482
:102320000034003408340834083407340834843462
:1023300008340534083483340134883400340034DC
:10234000003400340034003480340134003400346C
:10235000403489340134073400340034003400340C
:10236000003400340434083404348634203488348F
:10237000003400341034813400340034003400342C
:1023800000340034003400340034003400340034AD
:10239000003400340034003401348134003400341B
:1023A000003400340234863400340034023484347F
:1023B00002348234003400340034003400340034F9
:1023C0000234883402348934023487340234853448
:1023D00001348434023483340834893400340034C2
:1023E00000340034013487340134863401348834B5
:1023F0000134853401348234003400340034003434
:10240000003400340034003400340034003400342C
:10241000003400340034003400340034003400341C
:10242000003400340034003400340034003400340C
:1024300000340034003400340034003400340034FC
:1024400000340034003400340034003400340034EC
:1024500004340834003400340034003400340034D0
:1024600000340034003400340034003400340034CC
:1024700000340034003400340034003400340034BC
:1024800000340034003400340034003400340034AC
:10249000003400340034003400340034003400349C
:1024A000003400340034003400340034003400348C
:1024B000003400340034003400340034003400347C
:1024C000003400340034003400340034003400346C
:1024D000003400340034003400340034003400345C
:1024E000003400340034003400340034003400344C
:1024F000003400340034003400340034003400343C
:10250000003400340034003400340034003400342B
:10251000003400340034003400340034003400341B
:102520000034003400340034013403340034003407
:1025300000340034003400340034003400340034FB
:1025400000340034003400340034003400340034EB
:1025500000340034003400340034003400340034DB
:1025600000340034003400340434063400340034C1
:1025700000340034003400340034003400340034BB
:1025800000340034003400340034003400340034AB
:10259000003400340034003400340034003400349B
:1025A0000034003402348034003400340134803488
:1025B0000234003400340034003400340034003479
:1025C00001348134013401340234013400340034E4
:1025D00001340034023481340034003400340034D7
:1025E000003400340034003400340034003400344B
:1025F000003400340034003400340034003400343B
:020000040001F9
:02000E008C174D
:02001000FF25CA
:020012009F0F3E
:02001400FF2FBC
:02001600FF3FAA
:00000001FF
